:020000040800F2
:10000000005000202D8D0008518B0008598B0008EE
:10001000618B0008698B0008718B000800000000EC
:10002000000000000000000000000000798B0008C4
:10003000858B000800000000918B0008191800084B
:10004000758D0008758D0008758D0008758D000888
:10005000758D0008758D0008758D0008758D000878
:10006000758D0008758D0008758D0008758D000868
:10007000758D0008758D0008758D0008758D000858
:10008000758D0008758D0008758D0008758D000848
:10009000758D0008758D0008758D0008758D000838
:1000A000758D0008758D0008758D0008758D000828
:1000B0009D2A0008758D0008758D0008758D000853
:1000C000758D0008758D0008758D0008758D000808
:1000D000758D0008758D0008758D0008758D0008F8
:1000E000758D0008758D0008758D000800000000F2
:1000F0000000000000000000000000000000000000
:0C01000000000000000000005FF808F1A3
:1001100010B5054C237833B9044B13B10448AFF341
:1001200000800123237010BDD801002000000000D2
:10013000DCCB000808B5034B1BB103490348AFF300
:10014000008008BD00000000DC010020DCCB0008BE
:1001500010F8012B11F8013B012A28BF9A42F7D071
:10016000D01A704781F0004102E000BF83F00043E5
:1001700030B54FEA41044FEA430594EA050F08BF42
:1001800090EA020F1FBF54EA000C55EA020C7FEA06
:10019000645C7FEA655C00F0E2804FEA5454D4EB83
:1001A0005555B8BF6D420CDD2C4480EA020281EA4D
:1001B000030382EA000083EA010180EA020281EA85
:1001C0000303362D88BF30BD11F0004F4FEA0131D7
:1001D0004FF4801C4CEA113102D0404261EB4101E6
:1001E00013F0004F4FEA03334CEA133302D052426C
:1001F00063EB430394EA050F00F0A780A4F1010428
:10020000D5F1200E0DDB02FA0EFC22FA05F2801861
:1002100041F1000103FA0EF2801843FA05F3594147
:100220000EE0A5F120050EF1200E012A03FA0EFCC6
:1002300028BF4CF0020C43FA05F3C01851EBE371F0
:1002400001F0004507D54FF0000EDCF1000C7EEB0D
:1002500000006EEB0101B1F5801F1BD3B1F5001F4B
:100260000CD349085FEA30004FEA3C0C04F101046A
:100270004FEA445212F5800F80F09A80BCF1004F93
:1002800008BF5FEA500C50F1000041EB045141EA15
:10029000050130BD5FEA4C0C404141EB0101013CDE
:1002A00028BFB1F5801FE9D291F0000F04BF0146CD
:1002B0000020B1FA81F308BF2033A3F10B03B3F19F
:1002C00020020CDA0C3208DD02F1140CC2F10C022F
:1002D00001FA0CF021FA02F10CE002F11402D8BF8D
:1002E000C2F1200C01FA02F120FA0CFCDCBF41EA59
:1002F0000C019040E41AA2BF01EB0451294330BD28
:100300006FEA04041F3C1CDA0C340EDC04F1140404
:10031000C4F1200220FA04F001FA02F340EA0300DB
:1003200021FA04F345EA030130BDC4F10C04C4F121
:10033000200220FA02F001FA04F340EA0300294601
:1003400030BD21FA04F0294630BD94F0000F83F44B
:10035000801306BF81F480110134013D4EE77FEA2E
:10036000645C18BF7FEA655C29D094EA050F08BF7A
:1003700090EA020F05D054EA000C04BF194610465B
:1003800030BD91EA030F1EBF0021002030BD5FEA9F
:10039000545C05D14000494128BF41F0004130BDC7
:1003A00014F580043CBF01F5801130BD01F000451B
:1003B00045F0FE4141F470014FF0000030BD7FEA8E
:1003C000645C1ABF194610467FEA655C1CBF0B4689
:1003D000024650EA013406BF52EA033591EA030FA0
:1003E00041F4002130BD00BF90F0000F04BF002198
:1003F000704730B54FF4806404F132044FF00005CB
:100400004FF0000150E700BF90F0000F04BF002143
:10041000704730B54FF4806404F1320410F00045A9
:1004200048BF40424FF000013EE700BF42004FEAA4
:10043000E2014FEA31014FEA02701FBF12F07F4321
:1004400093F07F4F81F06051704732F07F4208BFD8
:10045000704793F07F4F04BF41F40021704730B5DF
:100460004FF4607401F0004521F000411CE700BF2B
:1004700050EA010208BF704730B54FF000050AE0AE
:1004800050EA010208BF704730B511F0004502D5AF
:10049000404261EB41014FF4806404F132045FEAB1
:1004A000915C3FF4D8AE4FF003025FEADC0C18BF5A
:1004B00003325FEADC0C18BF033202EBDC02C2F14C
:1004C000200300FA03FC20FA02F001FA03FE40EADE
:1004D0000E0021FA02F11444BDE600BF70B54FF0E2
:1004E000FF0C4CF4E06C1CEA11541DBF1CEA1355C0
:1004F00094EA0C0F95EA0C0F00F0DEF82C4481EA28
:10050000030621EA4C5123EA4C5350EA013518BF47
:1005100052EA033541F4801143F4801338D0A0FB34
:1005200002CE4FF00005E1FB02E506F00042E0FBE1
:1005300003E54FF00006E1FB03569CF0000F18BFE7
:100540004EF0010EA4F1FF04B6F5007F64F540748F
:1005500004D25FEA4E0E6D4146EB060642EAC62122
:1005600041EA55514FEAC52040EA5E504FEACE2E8F
:10057000B4F1FD0C88BFBCF5E06F1ED8BEF1004F92
:1005800008BF5FEA500E50F1000041EB045170BD0E
:1005900006F0004646EA010140EA020081EA030152
:1005A000B4EB5C04C2BFD4EB0C0541EA045170BD4E
:1005B00041F480114FF0000E013C00F3AB8014F1C8
:1005C000360FDEBF002001F0004170BDC4F1000411
:1005D000203C35DA0C341BDC04F11404C4F1200592
:1005E00000FA05F320FA04F001FA05F240EA0200ED
:1005F00001F0004221F0004110EBD37021FA04F623
:1006000042EB06015EEA430E08BF20EAD37070BDDC
:10061000C4F10C04C4F1200500FA04F320FA05F03B
:1006200001FA04F240EA020001F0004110EBD3703D
:1006300041F100015EEA430E08BF20EAD37070BDAD
:10064000C4F1200500FA05F24EEA020E20FA04F386
:1006500001FA05F243EA020321FA04F001F0004135
:1006600021FA04F220EA020000EBD3705EEA430EA6
:1006700008BF20EAD37070BD94F0000F0FD101F0D5
:100680000046400041EB010111F4801F08BF013C0E
:10069000F7D041EA060195F0000F18BF704703F04C
:1006A0000046520043EB030313F4801F08BF013DD3
:1006B000F7D043EA0603704794EA0C0F0CEA13558F
:1006C00018BF95EA0C0F0CD050EA410618BF52EA49
:1006D0004306D1D181EA030101F000414FF000004F
:1006E00070BD50EA410606BF1046194652EA43065D
:1006F00019D094EA0C0F02D150EA013613D195EAD1
:100700000C0F05D152EA03361CBF104619460AD118
:1007100081EA030101F0004141F0FE4141F4700122
:100720004FF0000070BD41F0FE4141F4780170BD12
:1007300070B54FF0FF0C4CF4E06C1CEA11541DBF77
:100740001CEA135594EA0C0F95EA0C0F00F0A7F879
:10075000A4EB050481EA030E52EA03354FEA0131A6
:1007600000F088804FEA03334FF0805545EA1313B9
:1007700043EA12634FEA022245EA111545EA106581
:100780004FEA00260EF000419D4208BF964244F118
:10079000FD0404F5407402D25B084FEA3202B61A37
:1007A00065EB03055B084FEA32024FF480104FF40B
:1007B000002CB6EB020E75EB030E22BFB61A75467F
:1007C00040EA0C005B084FEA3202B6EB020E75EB12
:1007D000030E22BFB61A754640EA5C005B084FEA7A
:1007E0003202B6EB020E75EB030E22BFB61A754647
:1007F00040EA9C005B084FEA3202B6EB020E75EB52
:10080000030E22BFB61A754640EADC0055EA060E12
:1008100018D04FEA051545EA16754FEA06164FEA55
:10082000C30343EA52734FEAC2025FEA1C1CC0D101
:1008300011F4801F0BD141EA00014FF000004FF08E
:10084000004CB6E711F4801F04BF01430020B4F14F
:10085000FD0C88BFBCF5E06F3FF6AFAEB5EB030C07
:1008600004BFB6EB020C5FEA500C50F1000041EB04
:10087000045170BD0EF0004E4EEA113114EB5C04D1
:10088000C2BFD4EB0C0541EA045170BD41F48011A4
:100890004FF0000E013C90E645EA060E8DE60CEAAC
:1008A000135594EA0C0F08BF95EA0C0F3FF43BAFC9
:1008B00094EA0C0F0AD150EA01347FF434AF95EA80
:1008C0000C0F7FF425AF104619462CE795EA0C0F64
:1008D00006D152EA03353FF4FDAE1046194622E731
:1008E00050EA410618BF52EA43067FF4C5AE50EA0B
:1008F00041047FF40DAF52EA43057FF4EBAE12E7FB
:100900004FF0FF3C06E000BF4FF0010C02E000BFDB
:100910004FF0010C4DF804CD4FEA410C7FEA6C5CBE
:100920004FEA430C18BF7FEA6C5C1BD001B050EA61
:10093000410C0CBF52EA430C91EA030F02BF90EA4C
:10094000020F0020704710F1000F91EA030F58BF0B
:10095000994208BF90422CBFD8176FEAE37040F06D
:10096000010070474FEA410C7FEA6C5C02D150EA0B
:10097000013C07D14FEA430C7FEA6C5CD6D152EAC6
:10098000033CD3D05DF8040B704700BF844610468B
:1009900062468C461946634600E000BF01B5FFF78A
:1009A000B7FF002848BF10F1000F01BD4DF808ED5A
:1009B000FFF7F4FF0CBF012000205DF808FB00BF2B
:1009C0004DF808EDFFF7EAFF34BF012000205DF885
:1009D00008FB00BF4DF808EDFFF7E0FF94BF0120D2
:1009E00000205DF808FB00BF4DF808EDFFF7CEFFD3
:1009F00094BF012000205DF808FB00BF4DF808ED12
:100A0000FFF7C4FF34BF012000205DF808FB00BFE2
:100A10004FEA410C7FEA6C5C02D150EA013C0AD1FA
:100A20004FEA430C7FEA6C5C02D152EA033C02D1EC
:100A30004FF0000070474FF0010070474A0011D29C
:100A400012F5001211D20DD56FF47873B3EB625228
:100A50000ED44FEAC12343F0004343EA505323FA34
:100A600002F070474FF00000704750EA013002D1A9
:100A70004FF0FF3070474FF0000070474FEA4102DF
:100A8000B2F1E04324BFB3F5001CDCF1FE5C0DD9EC
:100A900001F0004C4FEAC0024CEA5070B2F1004F36
:100AA00040EB830008BF20F00100704711F0804F39
:100AB00021D113F13872BCBF01F00040704741F4FE
:100AC00080114FEA5252C2F11802C2F1200C10FA02
:100AD0000CF320FA02F018BF40F001004FEAC123E6
:100AE0004FEAD32303FA0CFC40EA0C0023FA02F38A
:100AF0004FEA4303CCE77FEA625307D150EA013360
:100B00001EBF4FF0FE4040F44000704701F000402F
:100B100040F0FE4040F40000704700BF80F000400D
:100B200002E000BF81F0004142001FBF5FEA4103C5
:100B300092EA030F7FEA226C7FEA236C6AD04FEAC5
:100B40001262D2EB1363C1BFD2184140484041400A
:100B5000B8BF5B42192B88BF704710F0004F40F4BC
:100B6000000020F07F4018BF404211F0004F41F4D8
:100B7000000121F07F4118BF494292EA030F3FD0A4
:100B8000A2F1010241FA03FC10EB0C00C3F12003B7
:100B900001FA03F100F0004302D5494260EB400046
:100BA000B0F5000F13D3B0F1807F06D340084FEAB1
:100BB000310102F10102FE2A51D2B1F1004F40EBA6
:100BC000C25008BF20F0010040EA0300704749000E
:100BD00040EB0000013A28BFB0F5000FEDD2B0FAAB
:100BE00080FCACF1080CB2EB0C0200FA0CF0AABFCE
:100BF00000EBC25052421843BCBFD040184370476C
:100C000092F0000F81F4000106BF80F40000013271
:100C1000013BB5E74FEA41037FEA226C18BF7FEA48
:100C2000236C21D092EA030F04D092F0000F08BF8A
:100C30000846704790EA010F1CBF0020704712F071
:100C40007F4F04D1400028BF40F00040704712F1B0
:100C500000723CBF00F50000704700F0004343F015
:100C6000FE4040F4000070477FEA226216BF08464B
:100C70007FEA23630146420206BF5FEA412390EA0E
:100C8000010F40F4800070474FF0000304E000BF04
:100C900010F0004348BF40425FEA000C08BF7047B5
:100CA00043F0964301464FF000001CE050EA010279
:100CB00008BF70474FF000030AE000BF50EA01028E
:100CC00008BF704711F0004302D5404261EB41017B
:100CD0005FEA010C02BF84460146002043F0B643A0
:100CE00008BFA3F18053A3F50003BCFA8CF2083AC5
:100CF000A3EBC25310DB01FA02FC634400FA02FCCE
:100D0000C2F12002BCF1004F20FA02F243EB0200D4
:100D100008BF20F00100704702F1200201FA02FC36
:100D2000C2F1200250EA4C0021FA02F243EB020029
:100D300008BF20EADC7070474FF0FF0C1CEAD0526D
:100D40001EBF1CEAD15392EA0C0F93EA0C0F6FD02E
:100D50001A4480EA010C400218BF5FEA41211ED00C
:100D60004FF0006343EA501043EA5111A0FB0131F8
:100D70000CF00040B1F5000F3EBF490041EAD371CD
:100D80005B0040EA010062F17F02FD2A1DD8B3F149
:100D9000004F40EBC25008BF20F00100704790F0B8
:100DA000000F0CF0004C08BF49024CEA502040EA0A
:100DB00051207F3AC2BFD2F1FF0340EAC2507047D0
:100DC00040F400004FF00003013A5DDC12F1190F0E
:100DD000DCBF00F000407047C2F10002410021FA80
:100DE00002F1C2F1200200FA02FC5FEA310040F198
:100DF000000053EA4C0308BF20EADC70704792F011
:100E0000000F00F0004C02BF400010F4000F013A48
:100E1000F9D040EA0C0093F0000F01F0004C02BF43
:100E2000490011F4000F013BF9D041EA0C018FE7B2
:100E30000CEAD15392EA0C0F18BF93EA0C0F0AD0B8
:100E400030F0004C18BF31F0004CD8D180EA0100DE
:100E500000F00040704790F0000F17BF90F0004F77
:100E6000084691F0000F91F0004F14D092EA0C0F59
:100E700001D142020FD193EA0C0F03D14B0218BFEC
:100E8000084608D180EA010000F0004040F0FE4032
:100E900040F40000704740F0FE4040F440007047CE
:100EA0004FF0FF0C1CEAD0521EBF1CEAD15392EA4D
:100EB0000C0F93EA0C0F69D0A2EB030280EA010C3D
:100EC00049024FEA402037D04FF0805343EA1111D6
:100ED00043EA10130CF000408B4238BF5B0042F134
:100EE0007D024FF4000C8B4224BF5B1A40EA0C00D9
:100EF000B3EB510F24BFA3EB510340EA5C00B3EB0B
:100F0000910F24BFA3EB910340EA9C00B3EBD10FF8
:100F100024BFA3EBD10340EADC001B0118BF5FEA4A
:100F20001C1CE0D1FD2A3FF650AF8B4240EBC25073
:100F300008BF20F0010070470CF0004C4CEA502034
:100F40007F32C2BFD2F1FF0340EAC250704740F483
:100F500000004FF00003013A37E792F0000F00F075
:100F6000004C02BF400010F4000F013AF9D040EAF3
:100F70000C0093F0000F01F0004C02BF490011F487
:100F8000000F013BF9D041EA0C0195E70CEAD1537F
:100F900092EA0C0F08D142027FF47DAF93EA0C0F66
:100FA0007FF470AF084676E793EA0C0F04D14B024A
:100FB0003FF44CAF08466EE730F0004C18BF31F0FC
:100FC000004CCAD130F000427FF45CAF31F00043F6
:100FD0007FF43CAF5FE700BF4FF0FF3C06E000BF8F
:100FE0004FF0010C02E000BF4FF0010C4DF804CDB2
:100FF0004FEA40024FEA41037FEA226C18BF7FEAC2
:10100000236C11D001B052EA530C18BF90EA010FC3
:1010100058BFB2EB030088BFC81738BF6FEAE17052
:1010200018BF40F0010070477FEA226C02D15FEAEE
:10103000402C05D17FEA236CE4D15FEA412CE1D05A
:101040005DF8040B704700BF844608466146FFE721
:101050000FB5FFF7C9FF002848BF10F1000F0FBD03
:101060004DF808EDFFF7F4FF0CBF012000205DF8FC
:1010700008FB00BF4DF808EDFFF7EAFF34BF012081
:1010800000205DF808FB00BF4DF808EDFFF7E0FF1A
:1010900094BF012000205DF808FB00BF4DF808ED6B
:1010A000FFF7D2FF94BF012000205DF808FB00BFCE
:1010B0004DF808EDFFF7C8FF34BF012000205DF8B0
:1010C00008FB00BF4FEA40024FEA41037FEA226C6F
:1010D00002D15FEA402C08D17FEA236C02D15FEA9B
:1010E000412C02D14FF0000070474FF001007047D3
:1010F0004FEA4002B2F1FE4F0FD34FF09E03B3EB25
:1011000012620DD94FEA002343F0004310F0004F64
:1011100023FA02F018BF404270474FF000007047BA
:1011200012F1610F01D1420205D110F0004008BF59
:101130006FF0004070474FF00000704742000ED241
:10114000B2F1FE4F0BD34FF09E03B3EB126209D402
:101150004FEA002343F0004323FA02F070474FF0B8
:101160000000704712F1610F01D1420202D14FF02D
:10117000FF3070474FF00000704700BF10B50021EE
:101180000446FFF777FF20B92046BDE8104000F085
:1011900021B804F1004000F01DF8404261EB41012C
:1011A00010BD00BF38B50022002304460D46FFF7EE
:1011B00007FC28B920462946BDE8384000F02AB887
:1011C000204605F1004100F025F8404261EB410165
:1011D00038BD00BFD0B5FFF729F900220B4B0646FA
:1011E0000F46FFF77BF9FFF729FC0446FFF7FCF8F1
:1011F0000022074BFFF772F902460B46304639468C
:10120000FEF7B4FFFFF71AFC2146D0BD0000F03D09
:101210000000F041D0B500220B4B06460F46FFF709
:101220005DF9FFF70BFC0446FFF7DEF80022074BE1
:10123000FFF754F902460B4630463946FEF796FF53
:10124000FFF7FCFB2146D0BD0000F03D0000F0415F
:1012500080B483B000AF0346FB7197F90730002BD1
:101260000BDBFB7903F01F02064997F907305B0996
:10127000012000FA02F241F8232000BF0C37BD46DE
:1012800080BC704700E100E080B483B000AF03464B
:101290003960FB7197F90730002B0ADB3B68DAB243
:1012A0000C4997F907301201D2B20B4483F800239E
:1012B0000AE03B68DAB20849FB7903F00F03043B0C
:1012C0001201D2B20B441A7600BF0C37BD4680BC67
:1012D000704700BF00E100E000ED00E080B582B0A3
:1012E00000AF78607B68013BB3F1807F01D30123BD
:1012F0000FE00A4A7B68013B53600F214FF0FF303B
:10130000FFF7C2FF054B00229A60044B07221A60C8
:10131000002318460837BD4680BD00BF10E000E03E
:1013200080B483B000AF0346FB71FB79032B13D865
:1013300001A252F823F000BF491300084D13000822
:101340005113000855130008582306E0592304E000
:101350005A2302E0562300E03F2318460C37BD46CF
:1013600080BC704780B582B000AF78603960396862
:101370007868FFF77FFE0346002B01D07B6800E012
:101380003B6818460837BD4680BD000080B588B070
:1013900000AF78604FF00003FB610023FB767B68B1
:1013A000002B01D1284B4AE000237B6132E07B69AE
:1013B0009B007A6813441B6823F000433B61234978
:1013C0003869FFF775FE0346002B20D0204A7B6961
:1013D000043352F823301F491846FFF761FD0346D6
:1013E00039691846FFF75CFD0346FB60FB7E83F01E
:1013F0000103DBB2002B06D1F969F868FFF73AFE6A
:101400000346002B01D0FB68FB610123FB767B695F
:1014100001337B617B69032BC9DDFB7E83F0010314
:10142000DBB2002B01D0084BFB610B49F869FFF7D9
:1014300021FE0346002B01D0074BFB61FB691846D8
:101440002037BD4680BD00BF55558541BD37863527
:1014500070030020000070426F12833A80B588B09C
:1014600000AF78604FF00003FB610023FB767B68E0
:10147000002B02D1264B1B6B46E000237B612DE045
:101480007B699B007A6813441B6823F000433B612F
:1014900020493869FFF70CFE0346002B1BD01C4A7D
:1014A0007B690C3352F8233039691846FFF7F8FC92
:1014B0000346FB60FB7E83F00103DBB2002B06D109
:1014C000F969F868FFF7D6FD0346002B01D0FB68E9
:1014D000FB610123FB767B6901337B617B69032B15
:1014E000CEDDFB7E83F00103DBB2002B02D0084B84
:1014F0001B6BFB610849F869FFF7BCFD0346002B35
:1015000001D0054BFB61FB6918462037BD4680BD05
:1015100070030020BD378635CDCCCC3D80B588B07A
:1015200000AF78607B68002B03D07B681B78002BB2
:1015300001D10023ADE07B68FB610023FB76A2E0D4
:10154000FB690133FB61FB691B78202BF8D0FB6939
:101550001B78092BF4D0FB691B78002B00F09880D6
:10156000FB691B783B2B00F09380FB691B78282BD1
:1015700000F08E80FB691B78BB76BB7E602B05D9A3
:10158000BB7E7A2B02D8BB7E203BBB76BB7E4E2B2C
:1015900014D0BB7E582B11D0BB7E592B0ED0BB7EF6
:1015A0005A2B0BD0BB7E562B08D0BB7E462B05D0CA
:1015B000BB7E472B02D0BB7E4D2B62D1FB69013332
:1015C00007F108021146184609F07EF97861FB69B7
:1015D0005A1CBB689A4201D100235AE0BB681B78B1
:1015E000002B11D0BB681B78202B0DD0BB681B785B
:1015F000092B09D0BB681B783B2B05D0BB681B7837
:10160000282B01D0002344E0BB7E472B18D17869FA
:10161000FFF76EFD0346FB60FB68002B2CD0FB68D8
:10162000012B29D0FB68142B26D0FB68152B23D067
:10163000FB685A2B20D0FB685B2B1DD0002328E0D1
:10164000BB7E4D2B18D17869FFF752FD03463B61F5
:101650003B69032B10D03B69052B0DD03B69072B51
:101660000AD03B69082B07D03B69092B04D03B69A2
:10167000722B01D000230CE00123FB76BB68FB61D9
:1016800001E0002305E0FB691B78002B7FF45BAFD2
:10169000FB7E18462037BD4680BD80B584B000AFC4
:1016A00078607868FFF73AFF034683F00103DBB206
:1016B000002B01D000232DE002F01CFA034683F03A
:1016C0000103DBB2002B04D102F076FE0346002BAF
:1016D00010D0786802F040FA034683F00103DBB2D1
:1016E000002B03D0092003F039FF01E003F02CFFA9
:1016F00001230FE0786805F059FB0346FB73FB7B81
:10170000002B04D0FB7B184603F028FF01E003F018
:101710001BFF012318461037BD4680BD80B596B02B
:1017200000AF284B1B78032B45D0264B1B78062B8C
:1017300041D0244B1B78072B3DD0224B1B78042B28
:1017400039D0204B1B78052B35D0042387F8573030
:1017500019E03B1D184602F049FA034683F00103E5
:10176000DBB2002B29D13B1D184605F01FFB0346B9
:1017700087F8563097F85630002B04D097F856303B
:10178000184603F0EBFE97F857305A1E87F857209B
:10179000002B13D002F0AEF9034683F00103DBB255
:1017A000002B0BD002F008FE034683F00103DBB2EE
:1017B000002BCED102E000BF00E000BF5837BD468D
:1017C00080BD00BFF401002080B400AF0E4B1B6849
:1017D00001330D4A13600D4BDB6D002B10D00C4B09
:1017E0001B6801330A4A1360084BDA6D084B1B680B
:1017F0009A4205D8064B00221A60064B01221A7045
:1018000000BFBD4680BC7047D80400207003002094
:101810007C050020DD04002080B500AF07F0F2FA5F
:10182000FFF7D2FF00BF80BD80B400AF024B1B6842
:101830001846BD4680BC7047D804002080B500AF74
:10184000214B1B68204A43F48033136000BF1E4BBA
:101850001B6803F40033002BF9D01C4B1B681B4A98
:1018600043F014031360184B5B68174A23F47C138E
:101870005360154B5B68144A43F4E8135360124BF2
:101880005B68114A43F4806353600F4B1B680E4A38
:1018900043F08073136000BF0B4B1B6803F00073B1
:1018A000002BF9D0084B5B68074A43F002035360F2
:1018B00000BF054B5B6803F00C03082BF9D104480B
:1018C000FFF70CFD00BF80BD001002400020024069
:1018D0004019010080B582B000AF4E4B4E4A1A60ED
:1018E0004C4B4D4A5A604B4B4B4A9A60494B4A4AC3
:1018F000DA6000237B6024E0464A7B6852F823309C
:101900004FF07E511846FFF7B5FB0346002B05D07C
:10191000404A7B684FF07E5142F823103D4A7B6875
:1019200052F823303D491846FFF7C2FB0346002B0F
:1019300004D0384A7B68394942F823107B68013368
:101940007B607B68032BD7DD324B354A1A61314B04
:10195000334A5A612F4B334A9A612E4B314ADA612E
:101960002C4B314A1A622B4B2F4A5A62294B2E4A72
:101970009A62284B2C4ADA62264B2C4A1A63254B72
:101980002A4A5A63234B2A4A9A63224B284ADA632B
:10199000204B002283F840201E4B0C2283F841206C
:1019A0001C4B002283F842201A4B002283F843206C
:1019B000184B012283F84420164B012283F845205E
:1019C000144B012283F84620124B012283F8472052
:1019D000104B0F2283F848200E4B072283F8492032
:1019E0000C4B104ADA640B4B124A1A65094B4FF044
:1019F0007E525A65074B012283F85820054B192265
:101A0000A3F85A20034B4FF49672DA6500BF0837EB
:101A1000BD4680BD7003002000007A440050C347DB
:101A200000803B450000FA4300409C460000C8424D
:101A3000000048420000C84180B500AF394B9B69A7
:101A4000384A43F00D039361374B5B68364A43F0E5
:101A500000735360354B1B68344A23F00F03136047
:101A6000324B1B68314A43F0030313602F4B1B6852
:101A70002E4A23F0F00313602C4B1B682B4A43F0D3
:101A800030031360294B1B68284A23F070631360EE
:101A9000264B1B68254A43F040731360244B1B6898
:101AA000234A23F00F031360214B1B68204A43F0A5
:101AB0000303136000F0A4F81D4B1B681C4A23F4B9
:101AC000700313601A4B1B68194A43F480131360A8
:101AD000174B1B68164A23F070631360144B1B6886
:101AE000134A43F080731360114B1B68104A23F0B4
:101AF000704313600E4B1B680D4A43F08053136014
:101B00000B4B5B680A4A23F00F035360084B5B687A
:101B1000074A43F001035360054B4FF4F0725A61DA
:101B200000BF80BD001002400000014000080140DD
:101B3000000C014080B485B000AF03460A46FB713B
:101B40001346BB712B4B93F840301A46FB7942FA8F
:101B500003F303F00103002B14BF01230023FB73E5
:101B6000BA79FB7B5340DBB2002B14BF0123002367
:101B7000BB73FB79032B37D801A252F823F000BFC7
:101B8000911B0008A71B0008BD1B0008D31B000801
:101B9000BB7B002B03D0184B02221A6124E0164BAA
:101BA00002225A6120E0BB7B002B03D0124B0122A2
:101BB0001A6119E0104B01225A6115E0BB7B002B22
:101BC00003D00D4B40221A610EE00B4B40225A61AC
:101BD0000AE0BB7B002B03D0084B01221A6102E014
:101BE000064B01225A6100BF00BF1437BD4680BCBE
:101BF000704700BF7003002000080140000C014046
:101C000080B582B000AF00237B6008E07B68DBB268
:101C100000211846FFF78EFF7B6801337B607B68ED
:101C2000032BF3DD00BF00BF0837BD4680BD0000B9
:101C300080B485B000AF03460A46FB711346BB7102
:101C4000FB79032B5ED8FB79314A1344BA7983F8C8
:101C50004420304B93F841301A46FB7942FA03F3A3
:101C600003F00103002B14BF01230023FB7397F93A
:101C70000630002BCCBF01230023DBB21A46FB7BCE
:101C80005340002B14BF01230023BB73FB79032BAC
:101C900039D801A252F823F0A91C0008BF1C000883
:101CA000D51C0008EB1C0008BB7B002B03D01A4B93
:101CB00020221A6127E0184B20225A6123E0BB7BC7
:101CC000002B03D0144B40221A611CE0124B40221F
:101CD0005A6118E0BB7B002B03D00F4B80221A61A6
:101CE00011E00D4B80225A610DE0BB7B002B04D02C
:101CF000094B4FF480721A6105E0074B4FF4807274
:101D00005A6100E000BF1437BD4680BC704700BF79
:101D1000F401002070030020000C014080B483B067
:101D200000AF0346FB71044AFB7982F84F3000BFD5
:101D30000C37BD4680BC7047F401002080B500AF71
:101D40001B4BDB691A4A43F00103D3614FF0804318
:101D500000221A604FF0804347229A624FF080437E
:101D60001322DA624FF080431B684FF0804243F049
:101D7000800313604FF08043DB684FF0804243F0F4
:101D80000103D3604FF080435B694FF0804243F022
:101D9000010353614FF0804300221A6100211C208F
:101DA000FFF772FA1C20FFF753FA00BF80BD00BF97
:101DB0000010024080B487B000AF78600423FB605D
:101DC0007A68FB689A4201D2FB687B607A681346A6
:101DD0009B0013445B001A461A4BA3FB02235B09CA
:101DE0007B617A687B69D31A3B617B69012B05D8DB
:101DF00002237B617A687B69D31A3B613B69012BC3
:101E000005D802233B617A683B69D31A7B617B6901
:101E1000012B01D802237B613B69012B01D80223EE
:101E20003B61094A3B691360084A7B691360064BB2
:101E30001A68064B1B68134418461C37BD4680BC05
:101E4000704700BF1F85EB517010002074100020F8
:101E500080B584B000AF78607B68012B01D8022385
:101E60007B607B68B3F5803F02D34FF6FF737B60E6
:101E70007868FFF79FFFF8600A4B1B78DBB2002BF6
:101E800003D1094B1B68013B02E0084B1B68013B77
:101E90004FF08042D362064AFB68136000BF1037E0
:101EA000BD4680BD6C100020701000207410002012
:101EB0008005002080B582B000AF164B1B68002B58
:101EC00003D0154B1B68002B06D11420FFF772FFBF
:101ED0007860124A7B681360114B00221A700D4B18
:101EE0001B684FF08042013BD3624FF080430022D9
:101EF0005A624FF0804300221A614FF080431B6802
:101F00004FF0804243F00103136000BF0837BD4625
:101F100080BD00BF701000207410002080050020DC
:101F20006C10002080B582B000AF4FF080431B687A
:101F30004FF0804223F0010313604FF080430022F2
:101F40005A620C4B00221A70FFF75AFE00237B6086
:101F500007E0094A7B68134400221A707B6801334A
:101F60007B607B68032BF4DD00BF00BF0837BD46F4
:101F700080BD00BF6C1000207810002080B584B0B8
:101F800000AF0346FB71FB79032B02D94FF07E5360
:101F900019E0FB790E4A52F82330FB604FF07E5176
:101FA000F868FFF767F80346002B02D04FF07E5326
:101FB000FB600849F868FFF77BF80346002B01D067
:101FC000044BFB60FB6818461037BD4680BD00BF60
:101FD000700300200050C34790B59DB000AF7F4B09
:101FE000FB627F4B93F84E30DBB283F00103DBB230
:101FF000002B40F023827A4B1B78012B04D0784BC6
:102000001B78082B40F01C82FFF70EFCB862FB6ABD
:102010005B6BBA6AD31A7B627B6A012B40F2128235
:10202000FB6ABA6A5A63786AFEF72EFE03466D4968
:102030001846FEF781FE0346FB666B49F86EFFF714
:1020400037F80346002B01D0674BFB6672B600BF22
:10205000664BD3E90023C7E90623654BD3E9002388
:10206000C7E9182362B600BFD7E90623012A73F136
:102070000003C0F2E981D7E91823002B05DA4FF0FD
:1020800000024FF00003C7E91823D7E91823D7E966
:102090000601904271EB030303DAD7E90623C7E98F
:1020A0001823D7E90623012B07DBFB6A01221A70EC
:1020B000FB6A9A68FB6A5A6017E1BB697B613B6EF9
:1020C0003B617A693B69D31AFB607B69002B00F0A6
:1020D000BD81FB6A9B6AFB654FF00001F86DFEF75E
:1020E000D3FF0346002B18D03D4BD3F87031BB60B3
:1020F0003C49B868FEF7BEFF0346002B40F0A881BC
:102100007869FEF7C1FD03461946B868FEF7C8FEB8
:102110000346FB65FB6AFA6D9A623869FEF7B4FD07
:1021200003461946F86DFEF707FE03467B603B69E0
:10213000002B07D1FB6A02221A70FB6A1A69FB6A3C
:102140005A60D2E0FB6A5B6AFA689A4203D3FB6A80
:1021500002221A7007E0FB6A9B69FA689A4202D36E
:10216000FB6A01221A70FB6A1B78022B42D0022BF9
:102170006BDC002B02D0012B2BD066E0FB6A5C6885
:10218000FB6A5B69F96E1846FEF7D6FD03461946F1
:102190002046FEF7C9FC0346BB65FB6A9B681946EF
:1021A000B86DFEF785FF0346002B02D0FB6A9B68E3
:1021B000BB65FB6ADB681946B86DFEF75BFF03463B
:1021C000002B02D0FB6ADB68BB65FB6ABA6D5A6004
:1021D0003CE0FB6A9A68FB6A5A6037E054020020D0
:1021E000F40100206F12833ACDCCCC3D28050020AD
:1021F00070050020FB6A5C68FB6A5B69F96E184633
:10220000FEF79AFD034619462046FEF78BFC03466F
:102210007B65FB6A1B691946786DFEF72BFF034649
:10222000002B02D0FB6A1B697B65FB6A9B68194621
:10223000786DFEF73DFF0346002B02D0FB6A9B68DA
:102240007B65FB6A7A6D5A6000E000BFFB6A1A6921
:10225000FB6A1B6919461046FEF76EFD03461C46D5
:10226000FB6A5B6919461846FEF75EFC034679680F
:102270001846FEF761FD034619462046FEF754FC5A
:1022800003463B654FF00001386DFEF7F3FE034651
:10229000002B02D04FF000033B65386D0AF0F0FBD5
:1022A000F864FB6A1B691946F86CFEF7E3FE034607
:1022B000002B02D0FB6A1B69FB64FB6A9B68194612
:1022C000F86CFEF7F5FE0346002B02D0FB6A9B6814
:1022D000FB64FB6A5B681946F86CFEF7CBFE0346AD
:1022E000002B02D0FB6AFA6C5A60FB6ADB6ABB64A3
:1022F0005949B86CFEF7BEFE0346002B02D04FF0E2
:102300007E53BB64FB6A5B687B644FF00001786CB2
:10231000FEF7B0FE0346002B02D04FF000037B64B3
:10232000FB6A1B6B4D491846FEF706FD03463B64EE
:102330004B49386CFEF79EFE0346002B01D0484BFC
:102340003B64396C786CFEF795FE0346002B01D098
:102350003B6C7B64B96C786CFEF7EEFC0346FB6368
:102360003E49F86BFEF786FE0346002B01D03B4B3F
:10237000FB633C49F86BFEF79BFE0346002B01D044
:10238000384BFB63F96B3848FEF78AFD0346184665
:10239000FEF7D4FE0346BB63BB6B012B01D80223BF
:1023A000BB63BB6BB3F5803F02D34FF6FF73BB63D8
:1023B00004233B60BA6B3B689A4201D23B68BB6323
:1023C000BA6B13469B0013445B001A46274BA3FBD2
:1023D00002235B097B63BA6B7B6BD31A3B637B6B1A
:1023E000012B05D802237B63BA6B7B6BD31A3B634B
:1023F0003B6B012B05D802233B63BA6B3B6BD31AB3
:102400007B637B6B012B01D802237B633B6B012B2E
:1024100001D802233B6372B600BFFB6A3A6BDA63F2
:10242000FB6A7A6B1A643A6B7B6B1A44FB6A5A64D8
:10243000FB6A012283F8382062B60AE000BF08E098
:1024400000BF06E000BF04E000BF02E000BF00E004
:1024500000BF7437BD4690BD0AD7233C0000C84278
:102460006F12833A0024F448002474491F85EB510D
:1024700080B485B000AF1B4B3B603B6893F83830AD
:10248000DBB283F00103DBB2002B25D13B680022D5
:1024900083F838203B68DB6BFB603B681B6CBB60E0
:1024A0003B685B6C7B60FB68012B01D80223FB60FF
:1024B000BB68012B01D80223BB607B68032B01D8CA
:1024C00004237B60084AFB681360084ABB681360FA
:1024D000074A7B68136000E000BF1437BD4680BC2C
:1024E000704700BF540200207010002074100020BC
:1024F0008005002080B58AB002AFF860B9607A60CC
:10250000124B93F86C31FB76FB7E1846FFF736FDD5
:10251000F8610F49F869FEF7ADFD0346002B02D0C4
:102520004FF07E53FB61F9690A48FEF7B9FC034698
:102530007B617B6900937B697A68B968F86800F011
:102540000BF800BF2037BD4680BD00BFF40100205E
:102550000AD7233C0000C842B0B594B000AFF86081
:10256000B9607A603B60494B7B62494B93F86C31B0
:1025700087F8233097F823301846FFF7FFFCF864FC
:102580004449F86CFEF776FD0346002B02D04FF06D
:102590007E53FB647B6A4FF000029A62FFF744F9B6
:1025A00002467B6A5A637B6A002283F838207B6A82
:1025B000FA6CDA62F96C4FF07E50FEF771FC03465C
:1025C0001A467B6A1A633449B868FEF769FC034609
:1025D000BB64F96C3148FEF763FC03467B64304909
:1025E000786CFEF747FD0346002B01D02C4B7B6433
:1025F000796C3868FEF73EFD0346002B01D07B6CFA
:102600003B60796C386EFEF735FD0346002B01D038
:102610007B6C3B66796CB86CFEF72CFD0346002B97
:1026200001D07B6CBB641F497868FEF723FD03462D
:10263000002B01D01B4B7B601949F868FEF71AFD8F
:102640000346002B30D07B6A01221A707B6ABA6C79
:102650005A607B6ABA6C9A607B6ABA6CDA607B6A91
:10266000BA6C1A617B6A7A685A617B6A00225A6284
:102670007B6A5A6A7B6A1A627B6A1A6A7B6ADA61C7
:102680007B6ADA697B6A9A61F7E100BF5402002035
:10269000F40100200AD7233C000070420000C84229
:1026A0006F12833ACDCCCC3D7B6ABA6C9A607B6A60
:1026B0003A68DA607B6A3A6E1A617B6A7A685A61B4
:1026C0007B6A3A685A60B96CB86CFEF735FB034612
:1026D0001C4639683868FEF72FFB0346194620462A
:1026E000FEF720FA03461C467B6819461846FEF79B
:1026F0001BFA034619462046FEF7D2FB03463B640D
:10270000B96CB86CFEF718FB03461C46396E386E80
:10271000FEF712FB034619462046FEF703FA03466E
:102720001C467B6819461846FEF7FEF90346194613
:102730002046FEF7B5FB0346FB634FF00001386C03
:10274000FEF798FC0346002B02D04FF000033B64D9
:102750004FF00001F86BFEF78DFC0346002B02D012
:102760004FF00003FB63F96B386CFEF7DDF90346AD
:102770001946F868FEF77EFC0346002B75D0F96811
:102780007868FEF7D9FA03461C4639683868FEF7C0
:10279000D3FA03461D46396E386EFEF7CDFA03466E
:1027A00019462846FEF7C0F903464FF07C511846FB
:1027B000FEF7C2FA034619462046FEF7B5F903466E
:1027C000BB634FF00001B86BFEF754FC0346002BCF
:1027D00002D04FF00003BB63B86B0AF051F9786385
:1027E000796C786BFEF746FC0346002B01D07B6CBE
:1027F0007B63796B786BFEF79FFA03461C4639685A
:102800003868FEF799FA034619462046FEF78AF91A
:1028100003461C467B6819461846FEF785F90346B1
:1028200019462046FEF73CFB03463B64396CF868CA
:10283000FEF778F90346FB634FF00001386CFEF7B2
:1028400019FC0346002B02D04FF000033B644FF00D
:102850000001F86BFEF70EFC0346002B02D04FF090
:102860000003FB637B6A7A6B9A60396CF868FEF749
:1028700059F90346F96B1846FEF754F903463B63D2
:102880004FF00001386BFEF7F5FB0346002B02D03A
:102890004FF000033B6372B600BF794BD3E90023CE
:1028A000C7E9062362B600BFD7E90623012A73F100
:1028B000000303DBD7E90623012B15DB7B6A01222A
:1028C0001A707B6ABA6C5A607B6A00225A627B6A11
:1028D0005A6A7B6A1A627B6A1A6A7B6ADA617B6A65
:1028E000DA697B6A9A61C8E0BB697B617869FEF747
:1028F000CBF903461946F868FEF7D2FA03461A46A2
:102900007B6A9A62F968386CFEF7CAFA03461C467D
:102910007869FEF7B9F9034619462046FEF70CFA26
:1029200003461846FEF70AFC02467B6A9A61F9687C
:10293000386BFEF7B5FA03461C467869FEF7A4F932
:10294000034619462046FEF7F7F903461846FEF7F8
:10295000F5FB02467B6ADA617B6A9B697A699A4277
:1029600005D27B6A7A699A617B6A0022DA617B6AA6
:102970009A697B6ADB6913447A699A4205D27B6A59
:102980009B697A69D21A7B6ADA617B6A9B697A6988
:10299000D21A7B6ADB69D21A7B6A1A627B6A9A69ED
:1029A0007B6ADB691A447B6A5A627B6A5B6A7A6972
:1029B0009A4206D87B69012B38BF01235A1E7B6AD5
:1029C0005A627B6A9B69002B0DD17B6ADB69002B05
:1029D00001D1022200E001227B6A1A707B6A9A68A8
:1029E0007B6A5A6005E07B6A00221A707B6A3A684B
:1029F0005A60F96C3868FEF79FF90346FB6221497B
:102A0000F86AFEF737FB0346002B01D01D4BFB6233
:102A10001D49F86AFEF74CFB0346002B01D01A4B08
:102A2000FB62F96A1948FEF73BFA03461846FEF7BF
:102A300085FB0346BB62BB6A012B01D80223BB6244
:102A4000BB6AB3F5803F02D34FF6FF73BB62B86A2F
:102A5000FFF7B0F903460E4A13600E4B1A687B6A03
:102A6000DA630D4B1A687B6A1A64094B1A687B6A31
:102A70005A647B6A002283F838205037BD46B0BDC7
:102A8000280500200000C8420024F44800247449AE
:102A90008005002070100020741000202DE9B04F38
:102AA00086B000AF4FF080431B6903F00103002B99
:102AB00000F0BD814FF080436FF001021A61954B29
:102AC00093F84E30DBB283F00103DBB2002B40F011
:102AD000B081914B1B78DBB2012B7AD10023FB75BF
:102AE00000233B6139E08D4A3B6913441B78DBB21C
:102AF000002B2FD03B69DBB200211846FFF71AF8F4
:102B0000864A3B69134400221A700123FB75814AEF
:102B10003B699B0013445C687E4A3B691344443321
:102B200093F900301846FEF7B3F802467C493B693A
:102B300051F8233019461046FEF7B2F903461946FC
:102B40002046FDF7F1FF03461946724A3B699B0098
:102B5000134459603B6901333B613B69032BC2DD80
:102B6000FB7D002B1CD06F4BD3E9002312F1FF3A01
:102B700043F1FF3B6B4BC3E900AB664B1B78012B6A
:102B800003D0644B1B78082B01D1FFF771FC614B1C
:102B90001B78032B04D1644B1B680133624A13601A
:102BA0005D4B00221A70614B1B68002B0AD1604BF1
:102BB0001B68002B02D05E4B1B6800E014231846F4
:102BC000FFF7F8F8594B1B684FF08042013BD36286
:102BD00032E1534B93F84630002B38D04D4B1B78E5
:102BE000012B0BD04B4B1B78082B07D0494B1B7884
:102BF000062B03D0474B1B78072B28D10023FB6003
:102C000022E0FB68DBB2184600F05AF90346002BBD
:102C100017D0404AFB6808339B0013445B68002BC5
:102C20000FDD3C4AFB681344503301221A70FFF752
:102C300079F9384B002283F84E20364B05221A7062
:102C4000FAE0FB680133FB60FB68032BD9DD314BF5
:102C50001B78032B1CD12F4B93F85730012B04D03A
:102C60002C4B93F85730032B12D12A4B93F8583042
:102C7000184600F025F90346002B09D02D4B012200
:102C80001A70FFF74FF9234B002283F84E20D3E050
:102C9000244BD3E90023012A73F1000334DAFFF750
:102CA00041F90023BB6014E01A4ABB6804339B005F
:102CB00013445A681749BB689B000B445A60154A75
:102CC000BB6808339B00134400225A60BB68013381
:102CD000BB60BB68032BE7DD0E4B002283F84E2060
:102CE0000C4B1B78012B06D10A4B00221A70124B99
:102CF00001221A709FE0074B1B78082B40F09B8045
:102D0000044B00221A7096E00023FB7100233B6005
:102D100063E000BFF40100206C1000207810002058
:102D20007003002070050020840500207010002032
:102D30008005002088050020DC040020404A3B6814
:102D4000DB001344D3E90023134342D03C4A3B68E1
:102D5000DB001344D3E900013A4A3B68DB0013442B
:102D6000D3E90023841841EB0305364A3B68DB00B6
:102D70001344C3E90045334A3B68DB001344D3E9FD
:102D80000001314BD3E90023904271EB030321DBB7
:102D90002D4BD3E900232B483968C9000144D1E900
:102DA0000001B0EB020861EB0309264A3B68DB0037
:102DB0001344C3E900893B68DBB201211846FEF7E2
:102DC000B9FE224A3B68134401221A700123FB71A9
:102DD00000E000BF3B6801333B603B68032BADDD87
:102DE000FB79002B18D01A4B01221A70194B1B6863
:102DF000002B0AD1184B1B68002B02D0164B1B6806
:102E000000E014231846FEF7D5FF124B1B684FF065
:102E10008042013BD3620FE0104B1B68002B0BD0AC
:102E20000E4B1B684FF08042013BD36204E000BFB1
:102E300002E000BF00E000BF1837BD46BDE8B08F1C
:102E400050050020300500202805002078100020C3
:102E50006C100020741000208005002070100020ED
:102E600080B483B000AF144B1B68134A23F47F0374
:102E700023F470431360104B1B680F4A43F408039C
:102E800043F4004313600C4B38221A6100237B602B
:102E900008E00A4A7B681344503300221A707B68AA
:102EA00001337B607B68032BF3DD00BF00BF0C3771
:102EB000BD4680BC704700BF00080140F4010020FF
:102EC00080B487B000AF0346FB710023FB821F4B29
:102ED0003B61FB79022B0CD0022B0DDC002B02D0C6
:102EE000012B03D008E00823FB8207E01023FB82BC
:102EF00004E02023FB8201E0002322E03B699A6882
:102F0000FB8A1340002B14BF01230023FB73104BDB
:102F100093F842301A46FB7942FA03F303F00103B7
:102F2000002B14BF01230023BB73BB7B83F0010381
:102F3000DAB2FB7B5340DBB2002B14BF012300232A
:102F4000DBB218461C37BD4680BC70470008014004
:102F50007003002080B584B000AF354B93F8463045
:102F600083F00103DBB2002B01D000235BE00023E0
:102F7000FB730023BB6012E0BB68DBB21846FFF7AF
:102F80009FFF0346002B07D02A4ABB6813445033E7
:102F900001221A700123FB73BB680133BB60BB685D
:102FA000032BE9DDFB7B002B3CD0224B93F84E300A
:102FB000DBB2002B36D01F4B1B78012B0BD01D4BE7
:102FC0001B78082B07D01B4B1B78062B03D0194B03
:102FD0001B78072B26D101F063FC164B05221A70D3
:102FE000154802F097F900237B6015E0114A7B68D1
:102FF000134450331B78002B0BD0202002F074F9BF
:103000007B68DBB21846FEF78BF90346184602F0E0
:103010006BF97B6801337B607B68032BE6DD074837
:1030200002F078F9FB7B18461037BD4680BD00BF23
:1030300070030020F4010020F8CB000800CC000849
:1030400080B582B000AF00237B6008E00E4A7B6849
:103050001344503300221A707B6801337B607B6815
:10306000032BF3DD084B1B78052B03D0064B1B7895
:10307000042B05D1044B00221A70044802F04AF9CF
:1030800000BF0837BD4680BDF401002004CC000815
:1030900080B500AF094B5B68084AC3F31303536064
:1030A000064B5B68054A43F0885343F48013536032
:1030B00000F018F800F070F800BF80BD000C01406F
:1030C00080B400AF054B4FF400521A61044B01224B
:1030D00083F8542000BFBD4680BC7047000C0140FF
:1030E000F401002080B400AF054B4FF400525A6148
:1030F000044B002283F8542000BFBD4680BC7047BB
:10310000000C0140F401002080B400AF054B4FF4E7
:1031100080421A61044B012283F8552000BFBD464E
:1031200080BC7047000C0140F401002080B400AF67
:10313000054B4FF480425A61044B002283F855201E
:1031400000BFBD4680BC7047000C0140F401002068
:1031500080B400AF054B4FF400421A61044B0122CA
:1031600083F8562000BFBD4680BC7047000C01406C
:10317000F401002080B400AF054B4FF400425A61C7
:10318000044B002283F8562000BFBD4680BC704728
:10319000000C0140F401002080B500AFFFF7C6FF2E
:1031A000FFF7E8FF00BF80BDF0B58FB000AF03466A
:1031B000B9607A60FB73FB7B032B00F2D68007F1CA
:1031C0001003184601F008FCFB7B9B0038333B449E
:1031D00053F8283CFE7BB9681846FDF7A5FC03466A
:1031E0001A46B30038333B4443F8282CFB7BF97B69
:1031F0009B0038333B4453F8282C5F480B1D9B0041
:1032000003445A60FB7B5D4A52F82330B968184684
:10321000FDF792FD034623F000431846FDF7AEFF8D
:1032200002460B46C7E9082300237B6320E0FB7BB3
:103230007A6B9A4202D1D7E9082303E04FF00002EB
:103240004FF000034E48796BC9000144C1E90023E7
:10325000FB7B7A6B9A4201D13A6A00E00022464930
:103260007B6B08339B000B445A607B6B01337B63A1
:103270007B6B032BDBDDD7E90823134377D072B6D2
:1032800000BF4049D7E90823C1E900233E49D7E9F7
:103290000823C1E9002362B600BF00233B631CE0A2
:1032A000384BD3E900234FF000004FF00001D80F56
:1032B0000021841841EB03054FF000024FF000039A
:1032C000620842EAC5726B103048396BC90001448C
:1032D000C1E900233B6B01333B633B6B032BDFDD19
:1032E0004FF00001B868FDF7E3FE0346002B01D064
:1032F000012201E04FF0FF32FB7B11461846FEF73A
:1033000097FC23497868FDF7CBFD03461846FB7B05
:103310001A4A52F823301946FDF70EFD03461846A7
:10332000FDF70CFF0346FB62FB6A092B01D80A2359
:10333000FB62FB6A4CF25032934202D94CF250339A
:10334000FB62144AFB6AB2FBF3F31846FEF780FDFA
:10335000114B00221A60114B00221A70064B0122F9
:1033600083F84E20FEF7A6FD02E000BF00E000BF9C
:103370003C37BD46F0BD00BFF401002070030020C3
:103380005005002028050020700500203005002091
:103390000000704240420F00840500208805002094
:1033A00080B483B000AF2D4B93F85A30FB70FB789C
:1033B000002B02D14FF0FF334BE0294B93F85830EC
:1033C000012B02D0022B15D029E0FB7803F0040377
:1033D000002B01D002233CE0FB7803F00103002B1B
:1033E00001D0002335E0FB7803F00203002B2BD043
:1033F00001232EE0FB7803F00403002B01D002230D
:1034000027E0FB7803F00103002B01D0002320E02C
:10341000FB7803F00203002B18D0012319E00023EE
:103420007B600DE0FA787B6842FA03F303F0010356
:10343000002B02D07B685BB20BE07B6801337B60C2
:103440007B68032BEEDD02E000BF00E000BF4FF021
:10345000FF3318460C37BD4680BC7047F40100208E
:103460007003002080B584B000AF0346FB71FB7988
:10347000032B00F28A80474B93F8473083F0010317
:10348000DBB2002B03D0444801F044FF7EE0414B07
:1034900093F849301A46FB7942FA03F303F001032B
:1034A000002B0ED13D4801F035FFFB791846FDF7A2
:1034B00037FF0346184601F017FF394801F02AFF8D
:1034C00064E0384B03221A70364AFB7982F8583090
:1034D000344B012283F85720FB79012202FA03F3CF
:1034E000DAB2304B83F85A202E4B002283F8592051
:1034F000FB792C4A1344002283F85B200120FEF75D
:103500000DFC244B93F848301A46FB7942FA03F33A
:1035100003F00103002B01D0234B01E04FF07E5359
:10352000FB60224801F0F6FEFB791846FDF7F8FE35
:103530000346184601F0D8FE4FF00001F868FDF789
:1035400099FD0346002B01D0194B00E0194B18469A
:1035500001F0E0FE184801F0DDFEFB790D4A08336A
:1035600052F82330F9681846FDF7E6FB03464FF0A2
:103570007F511846FDF7E0FB03461946054BDA6C10
:10358000FB791846FFF710FE00E000BF1037BD467C
:1035900080BD00BF7003002018CC00082CCC0008B0
:1035A00034CC0008F4010020000080BF44CC0008A7
:1035B00050CC000858CC000860CC000890B585B00D
:1035C00000AF494B93F8473083F00103DBB2002B87
:1035D00019D00023FB600FE0444AFB689B001344B2
:1035E0004FF000025A60414AFB6813445B330022EB
:1035F0001A70FB680133FB60FB68032BECDD3C4871
:1036000001F088FE6CE0384B93F84930002B03D171
:10361000384801F07FFE63E0344B03221A70324BCE
:1036200093F84920314B83F85A20304B002283F81D
:1036300059200023BB6013E02B4B93F849301A4606
:10364000BB6842FA03F303F00103002B05D0274ABD
:10365000BB6813445B3300221A70BB680133BB6044
:10366000BB68032BE8DD0120FEF758FBFFF798FE4F
:103670000346FB7197F90730002B31DBFA791B4BBE
:1036800083F85820194B012283F85720164B93F8E2
:1036900048301A4697F9073042FA03F303F0010362
:1036A000002B01D0144B01E04FF07E533B60FC79BE
:1036B00097F907300C4A083352F823303968184616
:1036C000FDF73AFB03464FF07F511846FDF734FBF8
:1036D00003461946044BDB6C1A462046FFF764FD8F
:1036E0001437BD4690BD00BF70030020F4010020D8
:1036F0006CCC000894CC0008000080BF90B585B069
:1037000000AF8C4B1B78032B40F00D81894B93F855
:103710004E30DBB2002B40F00881864B93F85830D6
:10372000FB73854B93F848301A46FB7B42FA03F350
:1037300003F00103002B01D0804B01E04FF07E53DA
:10374000BB607C4B93F85730013B032B00F2E780C2
:1037500001A252F823F000BF69370008B73700080C
:10376000E73700082B380008754B1B78DBB2002BBD
:103770001AD0704B022283F85720BB6883F00043B5
:103780006D4A526D11461846FDF7D6FA03466D494B
:103790001846FDF7D1FA03461946674BDA6CFB7BF6
:1037A0001846FFF701FDC1E0624B04221A7066481B
:1037B00001F0B0FDBAE05F4B032283F857205E4B67
:1037C0005B6DB9681846FDF7B7FA03465F491846BE
:1037D000FDF7B2FA03461946574B1A6DFB7B1846A4
:1037E000FFF7E2FCA2E0564B1B78DBB2002B15D0B2
:1037F000504B042283F85720BB6883F000434E4AA5
:10380000526D11461846FDF797FA034619464A4B82
:103810001A6DFB7B1846FFF7C7FC87E0454B042277
:103820001A704B4801F076FD80E0FB7B414A9B001B
:1038300013444FF000025A60FB7B3E4A13440122BE
:1038400083F85B203B4B93F85A305AB2FB7B012143
:1038500001FA03F35BB2DB435BB213405BB2DAB253
:10386000344B83F85A203B4801F054FDFB7B18464B
:10387000FDF756FD0346184601F036FD364801F0C7
:1038800049FDFFF78DFD0346FB7197F90730002BCB
:103890003ADBFA79274B83F85820264B012283F82C
:1038A0005720244B93F859300133DAB2214B83F877
:1038B0005920214B93F848301A4697F9073042FABD
:1038C00003F303F00103002B01D01C4B01E04FF088
:1038D0007E533B60FC7997F90730174A083352F85A
:1038E000233039681846FDF727FA03464FF07F5119
:1038F0001846FDF721FA034619460F4BDB6C1A46B2
:103900002046FFF751FC11E00A4B052283F85720AF
:10391000084B00221A70114801F0FCFC06E0054B30
:1039200000221A7002E000BF00E000BF1437BD465D
:1039300090BD00BFF401002070030020000080BF94
:103940008805002000004040A8CC00080000A040EE
:10395000C4CC0008E4CC0008E8CC0008F4CC000893
:1039600080B400AF194B5B69184A43F001035361FF
:103970000021174B0A46A3F80221154B0A46A3F86B
:103980000021144B00221A60134B4FF4C0225A60DE
:10399000104B124A9A600F4B0D4ADA600D4B4FF4F0
:1039A00080725A600B4B4FF485521A600C4B5B6966
:1039B0000B4A43F040035361064B1B68054A43F032
:1039C0000103136000BFBD4680BC70470010024079
:1039D0008C050020580002400000024004380140DD
:1039E0000038014080B483B000AF184B5B68FB80A7
:1039F000FB88C3F580739AB2154BA3F80021144BD2
:103A0000B3F800319AB2124BB3F802319BB29A422A
:103A10000AD30F4BB3F800319AB20D4BB3F8023111
:103A20009BB2D31A9BB20CE0094BB3F800319AB2A7
:103A3000074BB3F802319BB2D31A9BB203F58073E4
:103A40009BB218460C37BD4680BC704758000240F8
:103A50008C05002080B582B000AFFFF7C3FF03469E
:103A6000002B01D1002318E00E4BB3F802319BB2BA
:103A70001A460C4B9B5CFB710A4BB3F802319BB2AC
:103A800001339BB2074A1946A2F80211FF2B03D952
:103A9000044B0022A3F80221FB7918460837BD46E3
:103AA00080BD00BF8C05002080B400AF0022074B12
:103AB000114683F80215054B114683F80115034B97
:103AC00083F8002500BFBD4680BC704790060020EB
:103AD00080B400AF064B93F80235DBB20F2B8CBFDE
:103AE00001230023DBB21846BD4680BC704700BFEF
:103AF0009006002080B400AF064B93F80235DBB28D
:103B0000002B0CBF01230023DBB21846BD4680BC4E
:103B1000704700BF9006002080B400AF034B93F8BD
:103B20000235DBB21846BD4680BC704790060020C7
:103B300080B400AF0022074B114683F80215054BF5
:103B4000114683F80115034B83F8002500BFBD46DD
:103B500080BC70479006002080B582B000AF7860CE
:103B6000FFF7B6FF0346002B01D0002337E01E4BC2
:103B700093F80035DBB21A4613469B0013441B0131
:103B8000194A13444F227968184607F0A5F8164BD6
:103B900093F80035DBB21946134A0B469B000B44E1
:103BA0001B0113444F3300221A700F4B93F800355A
:103BB000DBB201335A4203F00F0302F00F0258BF89
:103BC0005342DAB2084B83F80025074B93F80235CD
:103BD000DBB20133DAB2044B83F802250123184625
:103BE0000837BD4680BD00BF9006002080B582B07A
:103BF00000AF7860FFF77EFF0346002B01D0002363
:103C000029E0174B93F80135DBB21A4613469B00A7
:103C100013441B01124A134450221946786807F0D6
:103C20005BF80F4B93F80135DBB201335A4203F0D6
:103C30000F0302F00F0258BF5342DAB2084B83F869
:103C40000125074B93F80235DBB2013BDAB2044B96
:103C500083F80225012318460837BD4680BD00BF02
:103C60009006002080B483B000AF0022134B1146B1
:103C700083F8C214114B114683F8C1140F4B83F81B
:103C8000C02400237B600BE00C4A7B6803F598732B
:103C90009B0013444FF000025A607B6801337B6045
:103CA0007B68032BF0DD054B4FF00002C3F8D424F2
:103CB00000BF0C37BD4680BC704700BF940B00208E
:103CC00090B59DB000AFF860B9601346FB7100F08D
:103CD00073FB0346002B01D00023FFE1994B93F8BF
:103CE000C034DBB21A464C2302FB03F3954A13445B
:103CF000FB64944B93F8C234DBB2002B2BD0914B76
:103D000093F8C034DBB2002B06D08E4B93F8C0344E
:103D1000DBB2013BDBB200E00F2387F84B3000231E
:103D2000FB6614E097F84B2086491346DB001344EA
:103D30005B001344FA6E134451F82320FB6E9B0082
:103D400070333B4443F8502CFB6E0133FB66FB6E33
:103D5000032BE7DD04E007F12003184600F03CFEEA
:103D60000023BB660BE0BB6E9B00FA681344196826
:103D7000FB6CBA6E43F82210BB6E0133BB66BB6EA0
:103D8000032BF0DDFB6CBA681A61FB6CFA791A75CB
:103D9000FB6C4FF000029A6100237B6634E07B6E7F
:103DA0009B00FA6813441A687B6E9B0070333B4497
:103DB00053F8503C19461046FCF7B4FE03461A4629
:103DC0007B6E9B0070333B4443F8602CFB6C9C691A
:103DD0007B6E9B0070333B4453F8602C7B6E9B00E2
:103DE00070333B4453F8603C19461046FCF7A4FF7F
:103DF000034619462046FCF797FE03461A46FB6C1D
:103E00009A617B6E01337B667B6E032BC7DDFB6C97
:103E10009B69184608F034FE0246FB6C9A61FB6C05
:103E20009B6949491846FDF725F90346002B01D047
:103E3000002353E100233B6616E03B6E9B0070338A
:103E40003B4453F8602CFB6C9B6919461046FDF708
:103E500027F803461946FA6C3B6E06339B00134461
:103E600059603B6E01333B663B6E032BE5DDFB6C1B
:103E70001C331846FDF7F2FA0246FB6C5A64FB6CE1
:103E80005B6C32491846FDF7F5F80346002B02D06B
:103E9000FB6C2E4A5A64FB6C1C331846FDF776FA0D
:103EA0007864FB79002B03D0FB6C7A6CDA6315E045
:103EB0002749B868FCF7F4FF0346FB652349F86D12
:103EC000FDF7D8F80346002B01D0204BFB65796C39
:103ED000F86DFDF747FA0246FB6CDA63FB6CDB6BAF
:103EE0001A491846FDF7C6F80346002B02D0FB6CB2
:103EF000164ADA63FB6CDA6BFB6CDB6B1946104617
:103F0000FCF71AFF03461A46FB6C1A64FB6C1A6C2A
:103F1000FB6C1A63FB6C1A6CFB6C9A63094B93F88D
:103F2000C234DBB2002B00F0A880064B93F8C034FB
:103F3000DBB2002B0ED0034B93F8C034DBB2013B55
:103F4000DBB208E0940B00206F12833ACDCCCC3D5D
:103F5000000070420F2387F83F3097F83F304C2223
:103F600002FB03F35F4A1344BB634FF00003BB65DE
:103F700000237B6518E0BA6B7B6D06339B0013440E
:103F80005868FA6C7B6D06339B0013445B681946D6
:103F9000FCF7D2FE03461946B86DFCF7C3FD034695
:103FA000BB657B6D01337B657B6D032BE3DD4E4988
:103FB000B86DFDF75FF80346002B52D0B96D4FF096
:103FC0007E50FCF7AFFD03464FF07C511846FCF7DE
:103FD000B3FE0346184608F053FD78634349786BF7
:103FE000FDF766F80346002B36D0FB6CDA6BBB6B33
:103FF000DB6B19461046FDF7B5F93865FB6C5B6C59
:104000003B491846FCF798FE0346796B1846FCF7C7
:1040100093FE03461C46796B4FF07E50FCF782FD01
:10402000034619462046FCF73BFF0346184608F0B6
:1040300027FD3863396D386BFDF71CF80346002BFC
:1040400001D03B6B3B65396D386DFCF775FE03465F
:104050001A46FB6CDA621AE0FB6C1A6CFB6CDA62D3
:1040600015E0FB6C1A6CBB6B1B6C19461046FDF718
:1040700079F90246FB6CDA6209E01E4B3B64396C4D
:10408000386CFCF759FE03461A46FB6CDA62FB6C8F
:10409000194A5A63FB6C012283F84820FB6C00220A
:1040A00083F849200F4B93F8C034DBB201335A42F6
:1040B00003F00F0302F00F0258BF5342DAB2094B6C
:1040C00083F8C024074B93F8C234DBB20133DAB271
:1040D000044B83F8C22400F011F80123184674370A
:1040E000BD4690BD940B00203333733F6F12833A6B
:1040F000CDCC4C3DCDCCCC3D0BD7233C90B589B03D
:1041000000AF6E4B93F8C234DBB2012B40F2D28089
:104110006A4B93F8C034FB770023BB776AE0FB7FE0
:10412000002B03D0FB7F013BDBB200E00F23FB77CA
:10413000FB7F4C2202FB03F3604A13443B61BB7FCD
:10414000002B02D13B695E4A5A633B695C6B3B6959
:104150005B6C19461846FCF7E7FC03461A463B69B8
:104160009B6919461046FCF7E7FD034619462046B1
:10417000FCF7DAFC0346FB603B69DB6A1946F8682A
:10418000FCF778FF0346002B06D03B69FA68DA6239
:104190003B69012283F84820BA7F484B93F8C23428
:1041A000DBB2013B9A4222DAFB7F002B03D0FB7F7C
:1041B000013BDBB200E00F23FB72FB7A4C2202FBD7
:1041C00003F33E4A13447B603B69DA6A7B685B6BAE
:1041D00019461046FCF74EFF0346002B07D03B69FB
:1041E000DA6A7B685A637B68012283F84820BB7FC8
:1041F0000133BB77314B93F8C234DBB2BA7F9A42BA
:104200008DD32E4B93F8C134FB7700237B7749E0A5
:10421000FB7F4C2202FB03F3284A1344BB61BB69BA
:10422000DC6ABB695B6C19461846FCF77DFC0346EB
:104230001A46BB699B6919461046FCF77DFD03468B
:1042400019462046FCF770FC03467B61BB695B6B3B
:1042500019467869FCF70EFF0346002B02D0BB69B4
:104260007A695A63BB695A6BBB691B6C1946104665
:10427000FCF71EFF0346002B07D0BB691A6CBB6915
:104280005A63BB69012283F84920FB7F01335A42FC
:1042900003F00F0302F00F0258BF5342FB777B7FFE
:1042A00001337B77054B93F8C234DBB27A7F9A42B5
:1042B000AED300E000BF2437BD4690BD940B002074
:1042C0000BD7233C80B500AF00F064F80346002B09
:1042D00001D0002309E0064B93F8C134DBB21A4643
:1042E0004C2302FB03F3024A1344184680BD00BF6F
:1042F000940B002080B582B000AF00F04BF803466D
:1043000083F00103DBB2002B3ED0214B93F8C13484
:10431000DBB21A464C2302FB03F31D4A13443B60F5
:1043200000237B600FE03A687B6806339B001344F0
:104330005A6817497B6803F598739B000B445A60D1
:104340007B6801337B607B68032BECDD3B68DB6BB8
:104350000F4AC2F8D4340E4B93F8C134DBB20133A8
:104360005A4203F00F0302F00F0258BF5342DAB271
:10437000074B83F8C124064B93F8C234DBB2013BF0
:10438000DAB2034B83F8C22400BF0837BD4680BDB4
:10439000940B002080B400AF064B93F8C234DBB21C
:1043A000002B0CBF01230023DBB21846BD4680BCA6
:1043B000704700BF940B002080B400AF064B93F809
:1043C000C234DBB20F2B8CBF01230023DBB21846B3
:1043D000BD4680BC704700BF940B002080B400AF86
:1043E000034B93F8C234DBB21846BD4680BC70471D
:1043F000940B002080B400AF0022074B114683F8D5
:10440000C214054B114683F8C114034B83F8C02432
:1044100000BFBD4680BC7047940B0020F0B59DB036
:1044200000AFF860B96011461A460B46FB7113469F
:10443000BB7100E000BFA24B93F84E30DBB2002B03
:10444000F8D19F4B1B78042B03D09D4B1B78052B79
:1044500003D19C4800F05EFFFEE1994B93F84F308A
:1044600083F00103DBB2002B02D00120FDF756FCE4
:1044700007F1100300221A605A609A60DA604FF068
:1044800000024FF00003C7E91A2300237B664FF0B8
:1044900000033B660023FB65DFE0FB6D9B00FA68D1
:1044A00013441A688649FB6D9B000B445B681946F0
:1044B0001046FCF737FB03461A46FB6D9B00703332
:1044C0003B4443F8502CFB6D9B00FA6813441A6878
:1044D0007B49FB6D04339B000B445A60FB6D9B00D2
:1044E00070333B4453F8502C7549FB6D52339B009D
:1044F0000B445A60FB6D9B0070333B4453F8506C87
:10450000FB6DDBB21846FDF739FD03461946304610
:10451000FCF712FC034623F000431846FCF7E8FDC5
:1045200002466749FB6D56339B000B445A60FB6D96
:104530009B0070333B4453F8506CFB6DDBB2184664
:10454000FDF71CFD034619463046FCF7F5FB034614
:1045500023F00043184608F01DFB03461846FCF7FD
:104560000DFE02460B46C7E90C23D7E90C2356493A
:104570008A4273F1000303DB544800F0CBFE6BE189
:10458000534AFB6DDB00D118D7E90C23C1E90023A6
:104590003A6B4B49FB6D08339B000B445A603A6BF6
:1045A0004749FB6D0C339B000B445A60D7E90C2341
:1045B000D7E91A01904271EB030305DAD7E90C231E
:1045C000C7E91A23FB6D7B66FB6D9B0070333B4490
:1045D00053F8503C3F491846FCF76AFD0346002B50
:1045E00006D0FB6DDBB201211846FDF721FB1AE076
:1045F000FB6D9B0070333B4453F8503C36491846E2
:10460000FCF738FD0346002B07D0FB6DDBB24FF003
:10461000FF311846FDF70CFB05E0294AFB6D1344FA
:10462000443300221A70FB6D9B0070333B4453F8F7
:10463000502CFB6D9B0070333B4453F8503C1946A3
:104640001046FCF779FB03461946386EFCF76CFA06
:1046500003463B66FB6D0133FB65FB6D032B7FF768
:104660001CAF386E08F00CFA3866D7E91A231343EA
:1046700000F0F1801749386EFCF71AFD0346002B55
:104680001AD00023BB6514E0BB6D9B0070333B4424
:1046900053F8503C396E1846FCF702FC03461A46A4
:1046A000BB6D9B0070333B4443F8602CBB6D013302
:1046B000BB65BB6D032BE7DD00237B652AE000BFF4
:1046C000F401002008CD000801E1F50520CD000827
:1046D0005005002017B7D13817B7D1B8D7E91A233A
:1046E0004FF000004FF00001D80F0021841841EB7B
:1046F00003054FF000024FF00003620842EAC57262
:104700006B105748796DC9000144C1E900237B6DE6
:1047100001337B657B6D032BE0DD72B600BF514931
:10472000D7E91A23C1E900234F49D7E91A23C1E980
:10473000002362B600BF07F110031846FCF726FEFF
:1047400003464A491846FCF7F7FA03467B64FB79AF
:10475000002B05D1796CB868FCF704FE034600E035
:104760007B6C3B654FF07E51386DFCF783FC034654
:10477000002B02D04FF07E533B657B6EDAB23C4B90
:1047800083F86C213A4A3B6EC2F87031BB79002B3A
:104790004FD07B6EDBB21846FDF7F0FBF863334970
:1047A000386DFCF77DFB0346F96B1846FCF7C4FA3D
:1047B00003461846FCF7C2FC0346FB64FB6C092B5E
:1047C00001D80A23FB64FB6C2A4A934201D9294B86
:1047D000FB64294AFB6CB2FBF3F3BB64BB6C012B9B
:1047E00001D80223BB64BB6CB3F5803F02D34FF604
:1047F000FF73BB64B86CFDF7DDFA03461F4A136014
:104800001B4B012283F860201849386DFCF748FBE8
:1048100003461A46164B5A661449386DFCF740FB9E
:1048200003461A46124B9A66114B002283F89820D1
:104830000AE007F110031846FCF710FE38643A6CE2
:10484000396D386EFDF756FE094B012283F84E2074
:10485000FDF730FB00E000BF7437BD46F0BD00BF80
:10486000300500202805002070050020000070425F
:10487000F401002020A1070040420F008005002025
:1048800080B582B000AF78603960012300223968BA
:104890007868FFF7C3FD00BF0837BD4680BD000044
:1048A00080B582B000AFFDF73DFB2D4B002283F8B1
:1048B0004E2072B600BF2B494FF000024FF00003AC
:1048C000C1E9002328494FF000024FF00003C1E97D
:1048D000002362B600BF00237B6009E0204A7B68AA
:1048E00008339B00134400225A607B6801337B60CD
:1048F0007B68032BF2DD1A4B4FF00002C3F88820CF
:10490000174B002283F89820154B0022C3F89420FF
:10491000134B0022C3F8A420114B1B78062B03D1A4
:104920000F4B002283F8A8200D4B1B78072B03D1D7
:104930000B4B002283F8FC20094B1B78042B06D07C
:10494000074B1B78052B02D0054B00221A70FFF78E
:10495000EFF8FFF74FFD00BF0837BD4680BD00BF31
:10496000F4010020700500202805002080B485B0E7
:1049700000AF78600023FB600CE0FB689B007A6866
:1049800013441A680849FB689B000B445A60FB6893
:104990000133FB60FB68032BEFDD00BF00BF143762
:1049A000BD4680BC704700BFF401002080B483B0D6
:1049B00000AF03463960FB71FB79032B05D8FB7907
:1049C000044A9B0013443A685A6000BF0C37BD4646
:1049D00080BC7047F401002080B485B000AF7860DF
:1049E0000023FB600CE0FB689B007A681A440949CD
:1049F000FB689B000B445B681360FB680133FB6042
:104A0000FB68032BEFDD00BF00BF1437BD4680BC41
:104A1000704700BFF401002080B582B000AF78601D
:104A200008497868FCF788F90346184608F0B2F898
:104A300003461846FCF75CFB034618460837BD469C
:104A400080BD00BF00007A4480B582B000AF7860BE
:104A50007868FCF71DF9034604491846FCF720FA6C
:104A6000034618460837BD4680BD00BF00007A44A3
:104A700080B58AB000AFF8600B467A60FB72FB68C5
:104A8000002B02D07B68002B01D100236DE0FB7A64
:104A9000602B05D9FB7A7A2B02D8FB7A203BFB727C
:104AA000FB687B625CE07B6A1B7887F8233097F8B1
:104AB0002330602B08D997F823307A2B04D897F845
:104AC0002330203B87F8233097F82320FB7A9A4243
:104AD00043D17A6AFB689A4209D07B6A013B1B7812
:104AE000202B04D07B6A013B1B78092B01D10123C9
:104AF00000E0002387F8223097F8223003F001030A
:104B000087F8223097F82230002B26D07B6A0133B9
:104B1000FB61FB691B782D2B0FD0FB691B782B2BBE
:104B20000BD0FB691B782E2B07D0FB691B782F2B32
:104B300013D9FB691B78392B0FD807F114031946D9
:104B4000F86905F0C1FEB8617B69FA699A4204D040
:104B50007B68BA691A60012307E07B6A01337B62D4
:104B60007B6A1B78002B9ED1002318462837BD4650
:104B700080BD000080B483B000AF0346FB71FB79B9
:104B8000413B032B12D801A252F823F09D4B0008A1
:104B9000A14B0008A54B0008A94B0008002307E023
:104BA000012305E0022303E0032301E04FF0FF337C
:104BB00018460C37BD4680BC704700BF80B400AFBC
:104BC000294B1B78042B03D0274B1B78052B01D1D5
:104BD000264B44E0244B93F87831013B052B1BD83E
:104BE00001A252F823F000BF014C0008054C000858
:104BF000094C00080D4C0008114C0008154C000829
:104C00001B4B2CE01B4B2AE01B4B28E01B4B26E0E8
:104C10001B4B24E01B4B22E000BF134B1B78013BD6
:104C2000062B1BD801A252F823F000BF494C000804
:104C3000514C00084D4C00085D4C00085D4C0008CC
:104C4000554C0008594C00080E4B08E00E4B06E08E
:104C50000E4B04E00E4B02E00E4B00E00E4B1846EC
:104C6000BD4680BC704700BFF40100203CCD000869
:104C700044CD00084CCD000854CD00085CCD0008A0
:104C800064CD00086CCD000878CD000880CD000808
:104C900088CD000894CD0008A4CD000880B500AFF1
:104CA0003A4B93F84E30DBB283F00103DBB2002BBA
:104CB00020D0364B93F87831022B13D0334B93F836
:104CC0007831032B0ED0314B93F87831042B09D077
:104CD0002E4B93F87831052B04D02C4B93F8783178
:104CE000062B07D1294B1B78002B03D1274B002221
:104CF00083F878213C2000F0F7FAFFF75FFF0346C6
:104D0000184600F007FB224800F004FB1F4B5B68CD
:104D10000321184600F066FB2C2000F0E5FA1B4B3F
:104D20009B680321184600F05DFB2C2000F0DCFAA4
:104D3000164BDB6817491846FCF7A6F90346002B0B
:104D400003D0154800F0E6FA05E0104BDB680321BC
:104D5000184600F047FB2C2000F0C6FA0B4B1B69ED
:104D60000C491846FCF790F90346002B03D00A487B
:104D700000F0D0FA05E0054B1B690321184600F04E
:104D800031FB064800F0C6FA00BF80BDF4010020E8
:104D9000ACCD0008DBF91FC1B4CD0008BCCD0008C4
:104DA00080B500AFFFF77CFD044B012283F878212A
:104DB000034800F0AFFA00BF80BD00BFF40100203F
:104DC000C0CD000890B587B000AF786002E07B6886
:104DD00001337B607B681B78202BF8D07B681B78C5
:104DE000092BF4D07B681B78002B03D15B4800F0C3
:104DF00091FAAFE07B681B78FB74FB7C582B08D0E2
:104E0000FB7C592B05D0FB7C5A2B02D0FB7C562B0C
:104E100034D17B6801337B6102E07B6901337B61C4
:104E20007B691B78202BF8D07B691B78092BF4D089
:104E30007B691B78002B21D1FB7C582B0BD0FB7C92
:104E4000592B06D0FB7C5A2B01D1022304E003230B
:104E500002E0012300E00023BB74BB7C4FF00001A3
:104E60001846FFF7A3FD3E4800F054FAFB7C1846B5
:104E700000F03AFA3B4800F04DFA6BE0FB7C184634
:104E8000FFF778FE03467B7497F91130002B03DAA5
:104E9000324800F03FFA5DE07B680133FB6007F1C8
:104EA00008031A465821F868FFF7E2FD0346002B75
:104EB0000BD0BB6897F911401846FFF7ADFD0246CD
:104EC000294923010B4404331A6007F108031A46E9
:104ED0005921F868FFF7CCFD0346002B0BD0BB68C7
:104EE00097F911401846FFF797FD02461E49230126
:104EF0000B4408331A6007F108031A465A21F86870
:104F0000FFF7B6FD0346002B0BD0BB6897F91140A5
:104F10001846FFF781FD0246134923010B440C3369
:104F20001A6007F108031A465621F868FFF7A0FD3A
:104F30000346002B0BD0BB6897F911401846FFF7CA
:104F40006BFD0246084923010B4410331A600748E1
:104F500000F0E0F91C37BD4690BD00BFCCCD000885
:104F6000ECCD0008F4CD0008E0040020FCCD0008E2
:104F700080B588B000AF786002E07B6801337B6069
:104F80007B681B78202BF8D07B681B78092BF4D02A
:104F90007B681B78002B03D1294800F0BBF94CE05B
:104FA0007B681B781846FFF7E5FD0346FB7697F90B
:104FB0001B30002B03DA224800F0ACF93DE097F9F2
:104FC0001B301B011F4A134404337B61FB7E4133BA
:104FD000FB74FB7C184600F087F9202000F084F970
:104FE000194BFB600023FB6121E007F10C02FB6918
:104FF00013441B78184600F077F97B69FA6953F877
:105000002230124A934203D1114800F083F90BE099
:105010007B69FA6953F822301846FFF715FD0346FD
:105020000321184600F0DEF9FB690133FB61FB69DF
:10503000032BDADD074800F06DF92037BD4680BD4F
:1050400010CE0008E004002058595A56F1D8FFFF4E
:10505000B4CD000840CE000880B58CB000AF7860B9
:1050600002E07B6801337B607B681B78202BF8D0E3
:105070007B681B78092BF4D07B681B78002B03D14D
:105080003B4800F047F970E07B681B781846FFF753
:1050900071FD034687F8233097F92330002B03DA9C
:1050A000334800F037F960E097F923301B01314AAB
:1050B00013440433FB6107F10C031846FFF78CFC23
:1050C000002387F82F302C4BBB6200237B622CE03F
:1050D000FB697A6A53F82230284A934222D0FB694E
:1050E0007A6A53F822301846FFF7AEFC02467B6A14
:1050F0009B0030333B4443F8242C012387F82F30A6
:105100001F4A7B6A043352F823301946B86AFBF70A
:10511000CFFF0346002B05D0194A7B6A043352F8AF
:105120002330BB627B6A01337B627B6A032BCFDD5A
:1051300097F823300233DAB2124B83F87821124801
:1051400000F0E8F897F82F3083F00103DBB2002B72
:105150000AD10C4B08221A7007F10C00002301221F
:10516000B96AFFF75BF900E000BF3037BD4680BD8C
:1051700044CE0008E004002000007A44F1D8FFFF8C
:1051800070030020F401002068CE000880B500AF55
:10519000482200212A4805F078FD2A48FFF73CFC08
:1051A0000346274A53604FF08040FFF735FC034623
:1051B000234A9360224B244ADA60214B224A1A6127
:1051C0004FF08040FFF728FC03461D4A53614FF023
:1051D0007E50FFF721FC0346194A9361184B1A4A87
:1051E000DA61174B184A1A621648FFF715FC034696
:1051F000134A53624FF07E50FFF70EFC0346104AED
:1052000093620F4B104ADA620D4B0F4A1A634FF04C
:105210007E50FFF701FC0346094A53630B48FFF732
:10522000FBFB0346064A9363054B074ADA63044BCC
:10523000054A1A64024B012283F8442000BF80BD56
:10524000E00400200000A041F1D8FFFF0AD7233C72
:1052500080B400AF204B9B691F4A43F480439361A5
:105260001E4B5B681D4A23F0F00353601B4B5B68C9
:105270001A4A43F0B0035360184B5B68174A23F493
:1052800070635360154B5B68144A43F4806353604A
:10529000134A00235361124A1361114AD360104B21
:1052A00040F271229A600E4BDB680D4A43F40053C2
:1052B00043F00C03D36000220A4B1146A3F80411FB
:1052C000084B1146A3F80211064BA3F8002100BFBA
:1052D000BD4680BC704700BF00100240000801407E
:1052E00000380140D003002080B483B000AF0346F3
:1052F000FB7100BF064B1B6803F08003002BF9D045
:10530000034AFB79536000BF0C37BD4680BC704731
:105310000038014080B582B000AF786006E07B685D
:105320005A1C7A601B781846FFF7DEFF7B681B78F3
:10533000002BF4D100BF00BF0837BD4680BD000080
:1053400080B588B000AF78600023FB610023FB7656
:105350007B68002B04DA0123FB767B685B427B6071
:105360007B68002B21D13020FFF7BEFF35E07A6843
:105370001B4B83FB02139910D317C91A0B469B00D2
:105380000B445B00D11ACAB2FB69591CF961303277
:10539000D2B220333B4403F8142C7B68104A82FBC2
:1053A00003129210DB17D31A7B607B68002BDEDCC4
:1053B000FB7E002B0ED02D20FFF796FF0AE0FB6945
:1053C000013BFB6107F10C02FB6913441B78184693
:1053D000FFF78AFFFB69002BF1DC2037BD4680BD5B
:1053E0006766666680B586B000AF78600B46FB7076
:1053F0004FF000017868FBF73DFE0346002B06D016
:105400002D20FFF771FF7B6883F000437B60786895
:10541000FBF76EFE0346FB60F868FFF791FF2E2056
:10542000FFF762FFF868FBF733FC0346194678681C
:10543000FBF778FB03467B610023FB741DE01349F7
:105440007869FBF779FC03467B617869FBF750FECE
:1054500002460F4B83FB02139910D317C91A0B4650
:105460009B000B445B00D11ACBB23033DBB2184641
:10547000FFF73AFFFB7C0133FB74FA7CFB789A421E
:10548000DDD300BF00BF1837BD4680BD00002041FE
:105490006766666680B500AFFEF7A4FA0346002B88
:1054A00014BF01230023DBB2184680BD80B500AFD6
:1054B000FEF7D0FA0346184680BD000080B584B0E0
:1054C00000AF78600B467B8030E0FFF7EFFF0346CC
:1054D000FB73FB7B0D2B28D0FB7B0A2B16D1184BC3
:1054E0001B881A46174B002199547B881A46154988
:1054F000786805F0F1FB7B88013B7A681344002251
:105500001A700F4B00221A80012315E00C4B1B88E8
:105510007E2B0BD80A4B1B885A1C91B2084A11806B
:105520001946084AFB7B535400E000BFFFF7B2FF67
:105530000346002BC9D1002318461037BD4680BD55
:105540007C1000208010002080B500AF0248FFF7DB
:10555000E1FE00BF80BD00BF7CCE000880B582B0F8
:1055600000AF0346FB710748FFF7D4FEFB791846EE
:10557000FFF7E6FE0448FFF7CDFE00BF0837BD4643
:1055800080BD00BF84CE000840CE000890B595B025
:1055900000AFF860B9607A603B608D49B868FBF78E
:1055A00073FD0346002B03D08A48FFF7B3FE51E199
:1055B000894B1B78002B03D08848FFF7ABFE49E1ED
:1055C000874BFB63FB6B04331846FFF705FA002398
:1055D000FB640DE0FB6C9B00FA6813441A68F96BDE
:1055E000FB6C04339B000B445A60FB6C0133FB647F
:1055F000FB6C032BEEDDFB6B4FF000025A630023C4
:10560000BB6432E0BB6C9B00FA6813441868FA6B09
:10561000BB6C9B0013445B681946FBF783FA034697
:105620001A46BB6C9B0050333B4443F8302CFB6B59
:105630005C6BBB6C9B0050333B4453F8302CBB6C11
:105640009B0050333B4453F8303C19461046FBF75F
:1056500073FB034619462046FBF766FA03461A46D3
:10566000FB6B5A63BB6C0133BB64BB6C032BC9DDA2
:10567000FB6B5B6B184607F003FA0246FB6B5A6341
:10568000FB6B5B6B52491846FBF7F4FC0346002B9F
:1056900003D05448FFF73EFEDCE000237B6416E0B5
:1056A0007B6C9B0050333B4453F8302CFB6B5B6BA3
:1056B00019461046FBF7F4FB03461946FA6B7B6C60
:1056C00008339B00134459607B6C01337B647B6C13
:1056D000032BE5DDFB6B5B6BB9681846FBF7E0FB62
:1056E00003461846FBF72AFD0346BB63FB6B5C6B66
:1056F000B86BFBF7C9FA0346B9681846FBF71CFB01
:10570000034619462046FBF70DFA03467B633049F2
:10571000786BFBF7CDFC0346002B02D0BB6B01334B
:1057200005E0BB6B002B01D0BB6B00E00123FA6BE3
:10573000D364FB6BBA689A63FB6B7A681A644FF0A8
:1057400000013868FBF7B4FC0346002B01D03B682E
:1057500001E0254B1B68FA6B5364FB6B00229A64D3
:10576000FB6B4FF00002DA63FB6B00221A651A4BE9
:1057700006221A70FB6B01221A701C48FFF7CAFD43
:10578000FB6BDB6C1846FFF7DBFD1948FFF7C2FD2A
:105790000221B868FFF726FE1648FFF7BBFD7B68BD
:1057A0001846FFF7CDFD1448FFF7B4FD0120FCF7C4
:1057B000B5FAFB6B9A6BFB6B5B6B19461046FBF7FC
:1057C000D1FD3863FB6B3A6BDA6300233B6436E050
:1057D0006F12833A8CCE0008F4010020A8CE000896
:1057E0009C020020C0CE000800000020D0CE00089F
:1057F000DCCE0008E8CE0008F0CE0008FA6B3B6C67
:105800009B0013445C68FA6B3B6C08339B001344A9
:105810005A68FB6BDB6B19461046FBF78DFA0346A3
:1058200019462046FBF780F903461A463B6C9B005D
:1058300050333B4443F8402C3B6C01333B643B6C9E
:10584000032BDBDDFB6B5A6C07F110031146184686
:10585000FFF716F85437BD4690BD00BF90B58BB02A
:1058600000AF404BFB61FB695A6BFB69DB6B194670
:105870001046FBF757F90346BB61FB699A6CFB695D
:10588000DB6C013B9A420DD2FB699B6B3649184693
:10589000FBF74AF903461946B869FBF7F5FB0346DF
:1058A000002B19D000237B620EE0FA697B6A043377
:1058B0009B0013445A687B6A9B0028333B4443F89F
:1058C000242C7B6A01337B627B6A032BEDDDFB6951
:1058D0005A6BFB69DA6337E0FB699B6BB969184661
:1058E000FBF740FD7861FB69DB6B79691846FBF7D4
:1058F0001BF903461A46FB69DA6300233B6220E08A
:10590000FA693B6A9B0013445C68FA693B6A083396
:105910009B0013445A68FB69DB6B19461046FBF782
:105920000BFA034619462046FBF7FEF803461A46D3
:105930003B6A9B0028333B4443F8242C3B6A0133E9
:105940003B623B6A032BDBDDFB6901221A70FB69BA
:105950005A6C3B1D11461846FEF792FF00BF2C37CC
:10596000BD4690BD9C0200206F12833A80B582B084
:1059700000AF2D4B1B78062B4BD12C4B7B607B68EB
:105980001B78012B02D0022B2ED03AE0264B93F845
:105990004E30DBB283F00103DBB2002B3BD07B68DF
:1059A0009B6C5A1C7B689A647B689A6C7B68DB6C86
:1059B0009A4209D37B6803221A701B4B00221A708B
:1059C0001B48FFF7A7FC2BE07B681B6C002B08D063
:1059D0007B6802221A70FBF727FF02467B681A6574
:1059E00019E0FFF73BFF16E0FBF71EFF02467B685E
:1059F0001B6DD21A7B681B6C9A420ED3FFF72EFFE9
:105A00000BE0094B1B78062B09D1074B00221A70BB
:105A100005E000BF04E000BF02E000BF00E000BFFF
:105A20000837BD4680BD00BFF40100209C02002065
:105A3000F8CE000880B500AF084B1B78062B0BD1C1
:105A4000FEF72EFF054B002283F8A820034B00220F
:105A50001A700348FFF75EFC00BF80BDF401002010
:105A600010CF000880B58AB000AFF860B9607A60E6
:105A70003B607E497868FBF707FB0346002B03D0A9
:105A80007B48FFF747FCEDE0FB6823F000437749D4
:105A90001846FBF7EFFA0346002B09D1BB6823F049
:105AA000004372491846FBF7E5FA0346002B03D082
:105AB0007048FFF72FFCD5E06F4B1B78002B03D00D
:105AC0006E48FFF727FCCDE06D4B7B627B6A0433A9
:105AD0001846FEF781FF7B6AFA685A617B6ABA68EA
